:020000040800F2
:10000000E8170020553300084D0300084F0300088F
:1000100053030008570300085B03000800000000BA
:100020000000000000000000000000005F03000866
:100030006103000800000000630300086503000876
:100040006F3300086F3300086F3300086F33000808
:100050006F3300086F3300086F3300086F330008F8
:100060006F3300086F3300086F3300086F330008E8
:100070006F3300086F3300086F3300086F330008D8
:100080006F3300086F3300086F3300086F330008C8
:100090006F3300086F3300086F3300086F330008B8
:1000A0006F3300086F3300086F3300086F330008A8
:1000B0006F3300086F3300086F3300086F33000898
:1000C0006F3300086F3300086F3300086F33000888
:1000D0006F330008C93200086F3300086F3300081F
:1000E0006F3300086F3300086F3300086F33000868
:1000F0006F3300086F3300086F3300086F33000858
:100100006F3300086F3300086F3300086F33000847
:100110006F3300086F3300086F3300086F33000837
:100120006F3300086F3300086F3300086F33000827
:1001300000F002F800F062F80AA090E8000C824497
:100140008344AAF10107DA4501D100F057F8AFF274
:10015000090EBAE80F0013F0010F18BFFB1A43F0A5
:1001600001031847F4510100145201000A444FF0F2
:10017000000C10F8013B13F0070408BF10F8014B06
:100180001D1108BF10F8015B641E05D010F8016B4B
:10019000641E01F8016BF9D113F0080F1EBF10F8AF
:1001A000014BAD1C0C1B09D16D1E58BF01F801CBD2
:1001B000FAD505E014F8016B01F8016B6D1EF9D555
:1001C0009142D6D37047000000230024002500266A
:1001D000103A28BF78C1FBD8520728BF30C148BFAA
:1001E0000B607047642905F00580782905F03E8092
:1001F000002070471FB51FBD10B510BD05F000F9F8
:100200001146FFF7F7FF00F009F805F01EF903B4F7
:10021000FFF7F2FF03BC02F0FDFF00004FF41650A1
:1002200003F006F800F090F901F094FD02F088FF69
:1002300000F0A6FF02F04FF87AE064256424022162
:100240003C4803F09AF950B104213B4803F095F97A
:1002500028B14021374803F090F9002837D10A200F
:1002600002F0ABFF0221334803F087F948B10421C3
:10027000314803F082F920B140212E4803F07DF986
:1002800028BB02212B4803F078F938B901202B490B
:1002900008702B49204601F08CFF18E00421264805
:1002A00003F06BF938B9022024490870254920462B
:1002B00001F099FF0BE040211E4803F05EF930B9D0
:1002C00003201E4908702049204601F0A6FF08219E
:1002D000194803F052F950BB0A2002F06EFF0821C2
:1002E000154803F04AF910BB04F1640084B21348C6
:1002F0000078012804D0022807D003280FD109E094
:100300000F49204601F055FF09E00E49204601F053
:100310006AFF04E00C49204601F07FFF00BF00BFE8
:1003200000BF0821044803F028F90028F9D000BFD5
:1003300083E7000000100140000801400000002099
:10034000CDCCCC3ECDCC4C3F9A99193F704700BFE5
:10035000FEE700BFFEE700BFFEE700BFFEE7704715
:1003600070477047704700000CB500200190009066
:100370006C48006840F480306A49086000BF6948F2
:10038000006800F4003000900198401C0190009833
:1003900018B90198B0F5A06FF1D16248006800F477
:1003A000003010B10120009001E000200090009882
:1003B000012843D15C48006840F010005A490860A9
:1003C0000846006820F0030008600846006840F016
:1003D0000200086053484068524948600846406837
:1003E00048600846406840F48060486008464068BD
:1003F00020F47C1048600846406840F4E8104860EB
:100400000846006840F08070086000BF45480068FA
:1004100000F000700028F9D04248406820F0030046
:10042000404948600846406840F00200486000BF0C
:100430003C48406800F00C000828F9D10CBD10B50C
:10044000FFF792FF10BD10B53648006840F001007C
:1004500034490860084640683449084031494860DA
:1004600008460068324908402E490860084600687E
:1004700020F4802008600846406820F4FE004860B0
:100480004FF41F008860FFF7DAFF4FF00060294942
:10049000086010BD10B5002100200022214B5B68D0
:1004A00003F00C0121B1042906D0082928D107E066
:1004B000214B224C236027E01F4B204C236023E07C
:1004C000184B5B6803F47010164B5B6803F48032C2
:1004D000022303EB904022B9194B4343174C23608E
:1004E0000DE0104B5B6803F4003323B1144B43431E
:1004F000124C236003E0104B4343104C236003E095
:100500000D4B0E4C236000BF00BF064B5B68C3F36E
:1005100003130C4CE15C094B1B68CB40074C236078
:1005200010BD000000100240002002400000FFF853
:10053000FFFFF6FE08ED00E000127A000400002044
:1005400000093D000800002008B50121242003F027
:100550003DFA4FF48070ADF8000010208DF80300D4
:1005600003208DF802006946094802F073FF4FF43A
:100570008071074803F01BF80420ADF800006946BD
:10058000044802F067FF0421024803F010F808BD98
:1005900000080140001401404FF48071FE4A51618F
:1005A00049005161FD490860802151611161890054
:1005B000116170474FF48071F74A11614900516130
:1005C000F64908608021516111618900116170470D
:1005D00010B54FF08830F1490C390860091D0860EA
:1005E0000020EE4908608815EB4908614000486129
:1005F00040204861EA48808848F68911884202D143
:10060000022002F0B6FDE548001F006884B24020D9
:10061000E1490861C00008614FF03330DF490C390F
:100620000860091D08604FF6FF70DC49086020462D
:1006300010BD10B504460B462046FFF7ADFF4FF442
:100640008070D549086140004861D448036080202B
:10065000486108618000086110BD10B5044620465D
:10066000FFF79AFFFFF7B4FF10BD00B5CC4908892A
:10067000FFF792FF00BD4FF48071C74A1161490036
:100680005161C64908608021516111618900116181
:10069000704730B5014601F01F04C1F34513CA0A83
:1006A000E50205EB43151544A8B230BD00BF0100BB
:1006B000A0F10102D0B2FAD1704730B504460D4620
:1006C000B748808849F24131884240D1B4494889CD
:1006D000FFF762FF4FF48070AF4908614000486146
:1006E0002012AE4908608020AB4948610861800053
:1006F00008614010086140004861E0B2A749086005
:100700008020A5494861086180000861A449888962
:10071000FFF742FF4FF480709F4908614000486135
:1007200028129E49086080209B494861086180002A
:1007300008614010086140004861E8B297490860CC
:1007400080209549486108618000086112E0944862
:100750008079012804D192480088401E001B84B291
:100760008F4948892146FFF764FF8D4988892946CA
:10077000FFF75FFF30BD2DE9F04105460E46884882
:100780000088A84203DD86484088B04202DC002091
:10079000BDE8F08131462846FFF78FFF804880880A
:1007A00049F24131884211D07D48808846F60401E3
:1007B00088420BD07A48808845F21031884205D0B3
:1007C0007748808841F66311884203D12E20FFF7D5
:1007D000E3FE0DE07248808845F21051884204D152
:1007E0004FF43850FFF7D8FE02E02220FFF7D4FE86
:1007F0004FF0883069490C390860091D08604FF6D0
:10080000FF706649086088156349086140004861C7
:10081000402048610220FFF749FF6048001F006840
:1008200084B240205C49086148610220FFF73EFF26
:100830005A48001F006884B2402057490861584850
:10084000808849F24131884212D1402052494861A2
:100850000220FFF72BFF5148001F00681FFA80F8A5
:1008600040204D490861E7B24FF6FF7000EA0727C4
:100870004FF40070484908614FF0333047490C3954
:100880000860091D08604FF6FF704449086044483D
:10089000808849F24131884207D1E012C002B91282
:1008A00040EA411040EAE82072E72046FFF7F1FEF7
:1008B0006EE700B53A48808849F24131884203D159
:1008C0002920FFF769FE04E040F273110720FFF7CB
:1008D000B0FE00BD00B53248808849F241318842FF
:1008E00003D12820FFF758FE03E000210720FFF77F
:1008F000A0FE00BDF0B505460024002728488088EA
:1009000049F2413188427DD1082D1CD2DFE805F043
:100910000406090C0F12151800BF14E044F08004FF
:1009200011E044F040040EE044F0C0040BE044F059
:10093000200408E044F0600405E044F0A00402E074
:1009400044F0E00400BF00BF1548808845F2105114
:10095000884202D14FF4585700E03627104880886B
:1009600045F2103188420DD00D48808845F2105173
:10097000884207D00A48808841F66311884201D036
:1009800044F008040648808846F60401884201D1F4
:1009900044F00204214605E0001001400C0C014027
:1009A000B00A00203846FFF744FEFE48808841F632
:1009B000631188421DD004F0200068B1F948008816
:1009C000F8494988884214DAF64806884088F5498B
:1009D0000880084646800CE0F2480088F1494988C2
:1009E000884206DDEF4806884088EE4908800846C0
:1009F0004680EC48808845F2105188427ED1E94912
:100A0000488900E031E1FFF7C7FD4FF48070E64907
:100A10000861400048610020E44908608020E24904
:100A20004861086180000861DE494989491C88B233
:100A3000FFF7B2FD4FF48070DB4908614000486168
:100A40000020DA4908608020D749486108618000A9
:100A50000861D4494989891C88B2FFF79DFD4FF48C
:100A60008070D149086140004861CE480088401E2E
:100A70000012CE4908608020CB494861086180009F
:100A80000861C8494989C91C88B2FFF785FD4FF440
:100A90008070C549086140004861C2480078401E26
:100AA000C0B2C24908608020BF4948610861800027
:100AB0000861BC498889FFF76FFD4FF48070BA491F
:100AC0000861400048610020B84908608020B649AC
:100AD0004861086180000861B2498989491C88B26F
:100AE000FFF75AFD4FF48070AF490861400048613C
:100AF0000020AE4908608020AB4900E034E0486146
:100B0000086180000861A7498989891C88B2FFF7BC
:100B100043FD4FF48070A449086140004861A1483A
:100B20004088401E0012A149086080209E4948610B
:100B30000861800008619B498989C91C88B2FFF758
:100B40002BFD4FF48070984908614000486195483A
:100B50008078401EC0B29549086080209249486163
:100B6000086180000861A7E08E494889FFF714FDFD
:100B70004FF480708C4908614000486100208B4927
:100B80000860802088494861086180000861401041
:100B90000861400048610020844908608020824943
:100BA00048610861800008614010086140004861A8
:100BB0007C480088401E00127C49086080207A49E9
:100BC0004861086180000861401008614000486188
:100BD00074480078401EC0B2744908608020724991
:100BE00048610861800008616E498889FFF7D4FC7C
:100BF0004FF480706C4908614000486100206B49E7
:100C000008608020684948610861800008614010E0
:100C10000861400048610020644908608020624902
:100C20004861086180000861401008614000486127
:100C30005C484088401E00125C49086080205A4988
:100C40004861086180000861401008614000486107
:100C500054488078401EC0B25449086080205249F0
:100C6000486108618000086126E0082D1CD2DFE899
:100C700005F004070A0D0F12151844F0300413E0B4
:100C800044F0100410E044F020040DE000BF0BE03D
:100C900044F0380408E044F0280405E044F0180467
:100CA00002E044F0080400BF00BF032744F480546E
:100CB00021463846FFF7BDFCF0BD30B504460D4671
:100CC00029462046FFF7F9FCFFF7CFFC4FF4807070
:100CD000354908614000486135480088334908605B
:100CE00080203149486108618000086130BD70B5DD
:100CF00004460D4616462B48808849F24131884209
:100D000040D128494889FFF747FC4FF480702649B5
:100D1000086140004861201224490860802022496F
:100D20004861086180000861401008614000486126
:100D3000E0B21E49086080201B49486108618000BC
:100D4000086118498889FFF727FC4FF4807016491D
:100D50000861400048612812144908608020124947
:100D600048610861800008614010086140004861E6
:100D7000E8B20E49086080200B4948610861800094
:100D800008611BE007488079012804D105480088E4
:100D9000401E001B84B2034948892146FFF749FCE5
:100DA000004907E0B00A0020001001400C0C01408F
:100DB000800A002088892946FFF73BFC4FF48070A9
:100DC000FE49486140004861FD480089FD490860CE
:100DD0008020FA494861086180000861401008617C
:100DE00040004861F7480660802048610861800043
:100DF000086170BD2DE9F0410446BE20FFF7CCFB31
:100E00004FF48070ED490861400048610520ED49CC
:100E100008608020E949486108618000086140104D
:100E2000086140004861204605F048F905464FF04A
:100E30006632E54B05F056F9074605F0FBF8E14947
:100E400008608020DD494861086180000861401029
:100E50000861400048610120DA4908608020D749D4
:100E600048610861800008614010086140004861E5
:100E7000FF20D44908608020D04948610861800083
:100E8000086140100861400048610020CD490860B9
:100E90008020CA49486108618000086140100861EB
:100EA000400048610020C74908608020C34948616C
:100EB000086180000861BDE8F08110B50446002C8F
:100EC0003BD1BF498871F02008804FF4A070488062
:100ED0000846808849F2413188420BD0B848808862
:100EE00046F60401884205D0B548808845F21031A5
:100EF00088421AD12C20B24908812A2048812B200F
:100F000088810846808846F60401884205D0AC48AE
:100F1000808845F21031884232D14FF4A070A84940
:100F200008804FF4F07048802AE02220A44908810C
:100F3000202048812120888122E00120A049887159
:100F40004FF4A0700880F02048800846808849F25D
:100F50004131884205D09A48808845F21031884254
:100F600007D12C20964908812A2048812B2088818E
:100F700006E0222092490881212048812020888192
:100F80000020FFF7B7FC10BD2DE9FF4F84B00446E9
:100F90000D4606982044401E86B207982844401EFD
:100FA00087B28748808849F24131884275D18449A7
:100FB0004889FFF7F1FA4FF48070804908614000DA
:100FC000486120127F49086080207C49486108619F
:100FD000800008614010086140004861E0B2794932
:100FE00008608020754948610861800008614010F0
:100FF00008614000486130127249086080206F49E2
:101000004861086180000861401008614000486143
:10101000F0B26C490860802068494861086180002E
:10102000086167498889FFF7B7FA4FF48070634910
:1010300008614000486128126249086080205F49C9
:101040004861086180000861401008614000486103
:10105000E8B25C4908608020584948610861800016
:101060000861401008614000486138125549086025
:101070008020524948610861800008614010086181
:1010800040004861F8B24F49086080204B494861F0
:1010900008618000086133E0FFE749488079012852
:1010A0000ED1A846B94646480088801B401E1FFA4C
:1010B00080FA43480088001B401E1FFA80FB03E0B3
:1010C000A046B146AA46BB4650200390512002904C
:1010D000522001905320009041460398FFF7A9FA4F
:1010E00049460298FFF7A5FA51460198FFF7A1FA81
:1010F00059460098FFF79DFA29462046FFF7DDFA8A
:1011000008B0BDE8F08F70B5044600262C4805886D
:10111000408845432A48808846F60401884216D113
:1011200027488079012812D10020254988712A207A
:1011300048812B20888100210846FFF7BEFA012054
:101140001F4988712B2048812A20888103E00021D3
:101150000846FFF7B2FAFFF788FA00260DE04FF4D1
:10116000807016490861400048611648046080207C
:101170004861086180000861761CAE42EFD370BD03
:1011800008B50121192002F021FC01210F4802F0CD
:1011900032FA4FF4F860ADF8000010208DF803002B
:1011A00003208DF802006946044802F053F94FF419
:1011B000F861024802F0FBF90AE00000001001406B
:1011C000B00A00200C0C01406666044000023000AA
:1011D0004FF6FF70ADF800006946F74802F03AF9A3
:1011E0004FF6FF71F44802F0E2F9322001F0E5FF1A
:1011F00001210020FFF71DFA322001F0DEFF002060
:10120000FFF72BFAED49888008468088FF280ADB23
:10121000084680884FF6FF71884204D0E7488088EE
:10122000B0F5134F19D1D320FFF7B6F9FFF7D0F976
:10123000FFF7CEF9FFF7CCF9E049888008468088AF
:101240004FF6FF7101EA0020DC498880FFF7C0F902
:10125000DA4989880843D9498880D8488188D8A044
:1012600003F088FFD548808849F2413188427CD11B
:10127000CF20FFF791F90020FFF79CF9C120FFF77D
:1012800099F93020FFF796F9ED20FFF785F96420F2
:10129000FFF790F90320FFF78DF91220FFF78AF985
:1012A0008120FFF787F9E820FFF776F98520FFF71F
:1012B00081F91020FFF77EF97A20FFF77BF9CB2028
:1012C000FFF76AF93920FFF775F92C20FFF772F95B
:1012D0000020FFF76FF93420FFF76CF90220FFF7C9
:1012E00069F9F720FFF758F92020FFF763F9EA20A2
:1012F000FFF752F90020FFF75DF90020FFF75AF9D8
:10130000C020FFF749F91B20FFF754F9C120FFF770
:1013100043F90120FFF74EF9C520FFF73DF93020D2
:10132000FFF748F93020FFF745F9C720FFF734F9F8
:10133000B720FFF73FF93620FFF72EF94820FFF7D7
:1013400039F93A20FFF728F95520FFF733F9B12092
:10135000FFF722F90020FFF72DF91A20FFF72AF9ED
:10136000B620FFF719F90A2000E097E0FFF722F90D
:10137000A220FFF71FF9F220FFF70EF90020FFF778
:1013800019F92620FFF708F90120FFF713F9E020EB
:10139000FFF702F90F20FFF70DF92A20FFF70AF9EE
:1013A0002820FFF707F90820FFF704F90E20FFF7C0
:1013B00001F90820FFF7FEF85420FFF7FBF8A920F9
:1013C000FFF7F8F84320FFF7F5F80A20FFF7F2F8E7
:1013D0000F20FFF7EFF80020FFF7ECF80020FFF7F1
:1013E000E9F80020FFF7E6F80020FFF7E3F8E12036
:1013F000FFF7D2F80020FFF7DDF81520FFF7DAF845
:101400001720FFF7D7F80720FFF7D4F81120FFF7D0
:10141000D1F80620FFF7CEF82B20FFF7CBF85620A7
:10142000FFF7C8F83C20FFF7C5F80520FFF7C2F822
:101430001020FFF7BFF80F20FFF7BCF83F20FFF7A1
:10144000B9F83F20FFF7B6F80F20FFF7B3F82B20CD
:10145000FFF7A2F80020FFF7ADF80020FFF7AAF889
:101460000120FFF7A7F83F20FFF7A4F82A20FFF795
:1014700093F80020FFF79EF80020FFF79BF800206C
:10148000FFF798F8EF20FFF795F81120FFF784F8A1
:10149000782001F092FE2920FFF77EF80020FFF768
:1014A0000CFD01204A4908604FF6FF70FFF72BFE44
:1014B00008BD2DE9FC4F05460E4617469846DDF857
:1014C0002C90002001903D48808846F60401884217
:1014D00029D13A488079012825D1AB46354637488D
:1014E0000088C01B401E86B2474634480088A0EBE7
:1014F0000B00401E1FFA80F80020304988712A2016
:1015000048812B20888143463A4631462846CDF80B
:101510000090FFF7CEFF0120284988712B204881D9
:101520002A20888128E0781B401C80B20190344634
:1015300020E021462846FFF7C0F8FFF796F84FF065
:10154000000A12E04FF480702249086140004861AF
:1015500019480C30C0F80090802048610861800074
:1015600008610AF101001FFA80FA01988245E9DB5F
:10157000601C84B24445DCDDBDE8FC8F2DE9F84FEA
:1015800007460D4690469946DDF828B0A8EB0700BF
:10159000401C1FFA80FAA9EB0500401C80B20090A5
:1015A000002431E0281981B23846FFF786F8FFF7AA
:1015B0005CF8002624E00000000C0140B00A002086
:1015C000204C43442049443A25780D0A000000008D
:1015D000A8012242001001404FF48070FE490861CA
:1015E0004000486104FB0A603BF81000FB490860BA
:1015F0008020F9494861086180000861701C86B24A
:101600005645E9DB601C84B200988442CADBBDE821
:10161000F88F2DE9FF4F84B081468A460020039061
:1016200002900698A0EB09050798A0EB0A06CDF8F2
:101630000490CDF800A0002D01DD012705E00DB9D3
:10164000002702E04FF0FF376D42002E02DD4FF021
:10165000010806E016B94FF0000802E04FF0FF382D
:101660007642B54201DD2C4600E034464FF0000BD7
:1016700021E0009A91B2019A90B2FFF71EFB039805
:10168000284403900298304402900398A04205DD5C
:101690000398001B03900198384401900298A042DF
:1016A00005DD0298001B02900098404400900BF169
:1016B00001001FFA80FB601C8345DADD08B0BDE83D
:1016C000F08FF0B504460D4616461F462B463246AF
:1016D00029462046FFF79DFF3B46224629462046E5
:1016E000FFF797FF3B46324639462046FFF791FF0A
:1016F0003B46324629463046FFF78BFFF0BD2DE9C9
:10170000F04306460F469046002445460320A0EBD2
:1017100048093CE07A1B91B2321990B2FFF7CDFA3A
:101720003A1B91B2721990B2FFF7C7FA3A1991B207
:10173000721990B2FFF7C1FA7A1991B2321990B2C8
:10174000FFF7BBFA7A1991B2321B90B2FFF7B5FAE4
:101750003A1991B2721B90B2FFF7AFFA7A1B91B2AD
:10176000321B90B2FFF7A9FA3A1B91B2721B90B2EA
:10177000FFF7A3FA641CB9F1000F03DAA000801D83
:10178000814404E0601B80000A3081446D1EAC423D
:10179000C0DDBDE8F0832DE9F84F80460E461746C0
:1017A0001C46B3462046E31704EB5373DB10214677
:1017B0004FEAE47C04EB5C7C4FEAEC0CA4EBCC0C31
:1017C000BCF1000F02D04FF0010C01E04FF0000C13
:1017D0006344224604EBD27C4FEA6C0C03FB0CF30F
:1017E000DBB20093A7F12000C7B2002556E00C2C15
:1017F00007D107EB47007A4901EB800010F805900C
:1018000013E0102C05D1774800EB071010F8059075
:101810000BE0182C07D107EBC700734901EB8000E0
:1018200010F8059001E0BDE8F88F4FF0000A2FE0B6
:1018300009F0800030B16D48028831464046FFF71C
:1018400056FA07E00A9828B96948028831464046A6
:10185000FFF74DFA4FEA49604FEA1069701C86B2F3
:1018600064484088B04200DCDDE7A6EB0B00A042F4
:101870000AD15E4608F101001FFA80F85D48008831
:10188000404500DCCFE706E00AF1010000F0FF0A66
:10189000BAF1080FCCDB00BF681CC5B200988542C6
:1018A000A5DB00BFBFE710B50246012000E05043B2
:1018B0000B00A1F10104E1B2F9D110BD2DE9FF4FF8
:1018C00081B0074691461E460E9D4FF0000A002447
:1018D00039E0301B401EC1B20A20FFF7E4FFB9FB1C
:1018E000F0F00A21B0FBF1F201FB1208BAF1000F8F
:1018F00016D1701EA04213DDB8F1000F0ED10020EA
:10190000AB4605EBDB71491001FB0471009088B216
:101910002B4620220299FFF73EFF12E04FF0010A0A
:101920000020AB4605EBDB71491001FB0471009010
:1019300088B208F13001CAB22B460299FFF72BFF9B
:1019400000BF601CC4B2B442C3DB05B0BDE8F08F79
:101950002DE9FF4F82B0064692461F46DDE90F484B
:101960000020019000255EE0781B401EC1B20A20D5
:10197000FFF799FFBAFBF0F00A21B0FBF1F201FB8F
:1019800012090198C0BB781EA84238DDB9F1000FDA
:1019900033D108F0800078B108F00100A34604EBD1
:1019A000DB71491001FB0561009088B223463022AB
:1019B0000399FFF7F0FE0EE008F00100A34604EBE8
:1019C000DB71491001FB0561009088B2234620229B
:1019D0000399FFF7E0FE24E0001001400C0C0140E9
:1019E0008A6B0008FE6F0008EE750008800A002070
:1019F000820A0020B00A002001E00120019008F0D6
:101A00000100A34604EBDB71491001FB0561009066
:101A100088B209F13001CAB223460399FFF7BBFE31
:101A200000BF681CC5B2BD429EDB06B0BDE8F08FAA
:101A30002DE9F84704460D4690469946DDE90967C9
:101A400004F0FF0A08EB04001FFA80F809EB050018
:101A50001FFA80F916E0444502DB5446A81985B206
:101A60004D4500DB14E0002000903A7833462946CB
:101A70002046FFF790FE304606EBD07104EB610183
:101A80008CB27F1C38787E2802DC38782028E2DA95
:101A900000BFBDE8F8872DE9F04F81468A4615461C
:101AA0009846DDF824B010231A4651464846FFF701
:101AB0006BFA51464846FEF700FEFEF7D6FD0024BD
:101AC00049E0C4EBC40000EB80009C49085C297825
:101AD00088423FD1C4EBC40000EB80009749084422
:101AE00040786978884235D1002631E0C4EBC401E2
:101AF00001EB8101914A1144C91C885D002724E053
:101B000000F0800180290DD149008D4A1161490002
:101B100051618C49C1F800808021516111618900B7
:101B200011610DE04FF48071854A116149005161E6
:101B30008449C1F800B080215161116189001161AF
:101B40004FF6FF7101EA40007F1C082FD8D3761CA6
:101B5000202ECBD3641C402CB3D3BDE8F08F2DE9ED
:101B6000FC4707460D4614469946DDF828A0002696
:101B7000B04621E02078802811DA1020A9B2C8EB05
:101B8000C802CDE9000402F17C001023C822FFF74F
:101B90004FFF08F1010000F0FF08641C0CE0A9B23F
:101BA00007EBC60290B24B462246CDF800A0FFF7E5
:101BB00072FFA41CB01CC6B220780028DAD1BDE8A0
:101BC000FC872DE9F04F81468A4615469846DDF898
:101BD00024B020231A4651464846FFF7D5F951460E
:101BE0004846FEF76AFDFEF740FD002449E004EB9D
:101BF000440000EBC4105449085C297888423FD166
:101C000004EB440000EBC4104F4908444078697865
:101C1000884235D1002631E004EB440101EBC411C8
:101C2000494A1144C91C885D002724E000F0800166
:101C300080290DD14900424A116149005161414951
:101C4000C1F80080802151611161890011610DE0AE
:101C50004FF480713A4A1161490051613949C1F824
:101C600000B0802151611161890011614FF6FF714F
:101C700001EA40007F1C082FD8D3761C802ECBD3DE
:101C8000641C282CB3D3BDE8F08F2DE9F843064639
:101C90000F4614469846DDF8209000250CE0B9B2B6
:101CA00006EB051290B243462246CDF80090FFF7AE
:101CB00088FFA41CA81CC5B220780028EFD1BDE87D
:101CC000F8832DE9F84F04460D469046994626467E
:101CD0002F460A98009000BF2CE0009890F800A0D2
:101CE0004FF0000B1FE00AF0800030B11748028867
:101CF00039463046FEF7FBFF05E0154802883946B5
:101D00003046FEF7F4FF4FEA4A604FEA106A701C53
:101D100086B2464503DB2646781C87B206E00BF107
:101D2000010000F0FF0BBBF1080FDCDB00BF0098E7
:101D3000401C00904F45D0DBBDE8F88F1800002014
:101D4000001001400C0C0140C7000020800A002058
:101D5000820A002008B50121142001F037FE01217C
:101D6000494801F048FC0220ADF8000048208DF8F9
:101D700003006946454801F06DFB0420ADF8000002
:101D800048208DF803006946414801F063FB40207C
:101D9000ADF8000048208DF8030069463B4801F08B
:101DA00059FB0820ADF8000048208DF80300694673
:101DB000374801F04FFB2020ADF8000048208DF897
:101DC00003006946324801F045FB0820ADF80000E9
:101DD00048208DF8030069462C4801F03BFB202089
:101DE000ADF8000048208DF803006946274801F04F
:101DF00031FB08BD10B5044614B101202549087017
:101E00002448007848B30221204801F0B6FB48B1CD
:101E100004211F4801F0B1FB20B140211B4801F013
:101E2000ACFBD0B90A2001F0C8F9002019490870AC
:101E30000221164801F0A1FB08B9012010BD0421C0
:101E4000134801F09AFB08B90220F7E740210F4838
:101E500001F093FBA8B90320F0E702210B4801F041
:101E60008CFB01280DD10421094801F086FB0128D3
:101E700007D14021054801F080FB012801D1054927
:101E800008700020DAE70000000230000010014076
:101E900000080140840A00202DE9F04F91B08146EE
:101EA0008A46934600243CE0484604F007F905467C
:101EB0000E46600004F0EBF80746E54AE54B04F0F7
:101EC00011F92A463346CDE9000103F02BFFCDE995
:101ED000020103F0F5FD0022DF4BCDE9040103F020
:101EE00071FECDE90801584604F0F0FACDE906018B
:101EF000DDE9082304F0F6F80022D84BCDE90A0109
:101F000004F0F0F800224FF08043CDE90C0103F01B
:101F100009FFCDE90E0104F08DF82AF81400601CC9
:101F200084B24C45C0DB11B0BDE8F08F2DE9FC5FF9
:101F300005460E46174600241FE0284604F04EFCD6
:101F40008346204604F04AFCC5490190384604F017
:101F500059FC4FF08041009004F054FC82460199F6
:101F600004F050FC8146594604F03EFB804604F0E4
:101F7000FDFB26F81400601C84B205EBD571B4EBB0
:101F8000610FDADB284605EBD071C1F34F041FE087
:101F9000284604F023FC0190281B04F007FC4FF0B6
:101FA00080410090384604F02DFC8346AC4904F093
:101FB00029FC8146009904F025FC8246019904F031
:101FC00013FB804604F0D2FB26F81400601C84B298
:101FD000AC42DDDBBDE8FC9F2DE9F04104460E4636
:101FE0001746002504E0002026F81500681C85B27D
:101FF00004EBD471B5EB610FF5DB204604EBD07137
:10200000C1F34F050AE09649384604F0FBFB8046D1
:1020100004F0ACFB26F81500681C85B2A542F2DB83
:10202000BDE8F08108B500208DF8030003208DF88D
:1020300002001020ADF8000010218A4801F0B7FA24
:102040006946884801F006FA08BD1FB50121480716
:1020500001F0C9FC684601F0B1FF002001900220A8
:102060000390242000906946002001F090FF012198
:10207000002001F0A9FF0121002001F0B6FF1FBDE3
:102080003EB504460121084601F0ADFC684602F069
:1020900063FD0020ADF80000ADF80600A0B2ADF879
:1020A000040069464FF0804002F02AFA20214806D9
:1020B00002F0FBFF3EBD00B58BB00121022001F014
:1020C00078FC684602F0DEF81020029000010390D0
:1020D000002004908020059040000690800007902A
:1020E0004FF44050099000200A90202008905E484C
:1020F00000905E48019069465D4802F0A5F8012114
:102100005B4802F0CCF80BB000BD00B58BB00121EC
:10211000022001F04EFC684602F0B4F81020029054
:10212000000103900020049080200590400006905C
:10213000800007904FF44050099000200A90202022
:102140000890494800904B4801906946484802F081
:102150007BF80121464802F0A2F80BB000BD00B5A3
:102160008BB00121022001F024FC684602F08AF8BD
:102170001020029000010390002004908020059020
:1021800040000690800007904FF4405009900020D6
:102190000A90202008903448009037480190694602
:1021A000334802F051F80121314802F078F80BB0C1
:1021B00000BD70B504460D463048B0FBF4F62A4623
:1021C0002A494FF48070FFF767FEFFF72BFF304678
:1021D000FFF756FFFFF739FFFFF76DFF0121880773
:1021E00002F0EAFC70BD70B504460D462348B0FB12
:1021F000F4F62A461F494FF48070FFF797FEFFF769
:1022000011FF3046FFF73CFFFFF71FFFFFF77DFF91
:102210000121880702F0D0FC70BD70B504460D4660
:102220001648B0FBF4F62A4613494FF48070FFF7C6
:10223000D3FEFFF7F7FE3046FFF722FFFFF705FF5B
:10224000FFF78DFF0121880702F0B6FC70BD00008A
:102250004AD8124DFB2109400000F03F00FEAF407C
:1022600000F07F450008014008740040BE0A0020CD
:1022700030040240BE0C0020BE0E0020A24A040022
:1022800010B5044614B1012C0AD104E00021EF205E
:1022900000F0D7FE04E00121EF2000F0D2FE00BFE5
:1022A00000BF10BD10B50A2400F03BFF052000F070
:1022B00084FF00F036FF052000F07FFF0020FFF7CD
:1022C000DFFF002000F0DAFE0446202C01D00020C1
:1022D00010BD0120FCE770B500F080FDFFF7E2FFC4
:1022E00005460DB9002070BD0020FFF7C9FF00248E
:1022F0000AE0FE4A02EB44025178FC4A12F814004C
:1023000000F09FFE601CC4B2332CF2D30020FFF714
:10231000B7FF0120E7E71CB51F20F54908804FF6FD
:10232000FF704FF496731A46AA2100901E20FFF703
:10233000C0F8F0A010210B46C822CDE90010AA2158
:102340001E20FFF775FBF1A010210B46C822CDE936
:102350000010BE211E20FFF76BFB1CBDFEB5002048
:102360000290FFF78DFF00240AE0EE4A02EB4402E0
:102370005178EC4A12F8140000F063FE601CC4B2FD
:102380001E2CF2D30020FFF77BFF00241F20D8492A
:10239000088002AA0221432000F092FE0546002D8B
:1023A00071D19DF808009DF8091040EA0126002E21
:1023B00069D0102E4BD008DC012E10D0022E1CD07C
:1023C000042E28D0082E7DD133E0202E4DD0402E73
:1023D0005AD0802E78D0B6F5807FF4D192E0D2A08A
:1023E00018211023C822CDE900108C216E20FFF7A0
:1023F0001FFBD1A002F0BEFE93E0D1A01821102354
:10240000C822CDE900108C216420FFF711FBD0A079
:1024100002F0B0FE85E0D0A018211023C822CDE93B
:1024200000108C216420FFF703FBCFA002F0A2FE76
:1024300077E0CFA018211023C822CDE900108C210D
:102440006420FFF7F5FACEA002F094FE69E0CEA07A
:1024500018211023C822CDE900108C215020FFF74D
:10246000E7FACDA002F086FE5BE0CEA01821102393
:10247000C822CDE900108C215020FFF7D9FACDA059
:1024800002F078FE4DE04DE0CDA018211023C822C7
:10249000CDE900108C214620FFF7CAFACCA002F04B
:1024A00069FE0020CD490860CD49C1F8A001CDA04A
:1024B00018211023C822CDE90010D2216420FFF793
:1024C000B7FA2EE02CE0FFE7C9A018211023C8229C
:1024D000CDE900108C213220FFF7AAFAC8A002F043
:1024E00049FE0120BD490860BD49C1F8A001C8A04E
:1024F00018211023C822CDE90010D2216420FFF753
:1025000097FA0EE0C6A018211023C822CDE90010CA
:102510008C216420FFF78CFAC5A002F02BFE00E0AE
:1025200000BF00BFFEBD2DE9FF5F002003900290B9
:102530004FF478406E4908803023F022194600207D
:10254000FFF767F81F206A4908803223F0221946F6
:102550000020FFF75EF80020FFF792FE00240AE05B
:10256000704A02EB440251786E4A12F8140000F0EF
:1025700068FD601CC4B21E2CF2D30020FFF780FE61
:1025800000241F205A49088002AA0221432000F09B
:1025900097FD8146B9F1000F7DD19DF808009DF8A7
:1025A000091040EA012ABAF1000F74D0BAF1100FF5
:1025B00072D00CDCBAF1010F16D0BAF1020F3BD089
:1025C000BAF1040F52D0BAF1080F66D178E0BAF12F
:1025D000200F72D0BAF1400F70D0BAF1800F6ED0D8
:1025E000BAF5807FF1D1DEE193A018211023F0220B
:1025F000CDE9001014210020FFF71AFA4EA002F0D6
:10260000B9FD9348006800F57A709149086009881F
:1026100088B290490968FFF7CCFD4FF478403449FF
:1026200008808DA018210B46C822CDE9001050214A
:102630001820FFF7FDF9C6E18CA018211023F02225
:10264000CDE9001014210020FFF7F2F940A002F0BC
:1026500091FD7F480068A0F57A707D49086009887F
:1026600088B27C490968FFF7A4FDACE185A0182178
:102670001023F022CDE9001014210020FFF7D8F933
:1026800039A002F077FD7348006803F01FFF07468A
:10269000824A834B02E097E11FE193E103F092FA53
:1026A000054603F05DFA6B4908606949098888B2FC
:1026B00068490968FFF77DFD85E11DE12BE14EE1E9
:1026C00078A018211023F022CDE900101421002059
:1026D000FFF7AEF92AA002F04DFD5E48006803F056
:1026E000F5FE07466D4A6E4BE8E0000024510108F4
:1026F000800A00204B4559313A20202047657374E9
:102700007572652074657374000000004B45593084
:102710003A202020507320746573742020202020DC
:1027200000000000D051010855502020202020201A
:10273000202020200000000055700D0A000000003D
:10274000446F776D202020202020202000000000F2
:10275000446F776D0D0A00004C65667420202020C0
:1027600020202020000000004C6566740D0A000047
:10277000526967687420202020202020000000007B
:1027800052696768740D0A00466F7277617264203F
:102790002020202000000000466F72776172640DD7
:1027A0000A0000004261636B776172642020202080
:1027B000000000004261636B776172640D0A0000E3
:1027C000436C6F636B776973652020200000000005
:1027D000436C6F636B776973650D0A0088812242D1
:1027E000000021424F4E20202020202020202000C9
:1027F000416E7469436C6F636B77697365000000A9
:10280000416E7469436C6F636B776973650D0A0081
:102810004F464620202020202020202000000000BD
:1028200057617665202020202020202020000000F5
:10283000576176650D0A00002A2A2A2A2A2A2A2A9E
:102840002A55502A2A2A2A2A2A2A2A2A000000003F
:10285000880A00208C0A00202020204153696E281D
:1028600057582B26292B4B3A202020002A2A2A2A87
:102870002A2A2A2A446F776D2A2A2A2A2A2A2A2AC9
:10288000000000002A2A2A2A2A2A2A2A4C6566746D
:102890002A2A2A2A2A2A2A2A000000009A99999983
:1028A0009999C93F2A2A2A2A2A2A2A2A5269676814
:1028B000742A2A2A2A2A2A2A0000000003F01CFD72
:1028C000054603F04DF9EF490860EF49098888B2E1
:1028D000EC490968FFF76DFC75E0ECA018211023A6
:1028E000F022CDE9001014210020FFF7A1F8AFF28B
:1028F000581002F03FFC66E0EAA018211023F022F5
:10290000CDE9001014210020FFF792F8AFF25C101F
:1029100002F030FC57E0E9A018211023F022CDE9A5
:10292000001014210020FFF783F8AFF25C1002F0D2
:1029300021FCD549098888B2D2490968FFF753FCC0
:102940004FF47840E3490880E3A018210B46F022B9
:10295000CDE9001050210620FFF76AF833E0E3A02C
:1029600018211023F022CDE9001014210020FFF7D8
:102970005FF8AFF2741002F0FDFBC349098888B21A
:10298000C0490968FFF749FC4FF47840D1490880F5
:10299000DCA018210B46F022CDE9001050210220C6
:1029A000FFF746F80FE0DDA018211023C822CDE97B
:1029B000001014210020FFF73BF8AFF28C1002F05A
:1029C000D9FB00E000BF00BF4FF47840C149088048
:1029D000D8A018210B46C822CDE9001082213C2046
:1029E000FFF726F8D4A018210B46C822CDE9001025
:1029F0008221A020FFF71CF8D0A018210B46C82286
:102A0000CDE90010A0213C20FFF712F8CCA018213E
:102A10000B46C822CDE90010A0210846FFF708F8B0
:102A2000C8A018210B46C822CDE90010A0217020B3
:102A3000FEF7FEFFC4A010210B46C822CDE900100E
:102A400011463C20FEF7F4FFC4A010210B46C8221B
:102A5000CDE90010DC213C20FEF7EAFF1F209D4954
:102A60000880802018210523CDE9001086488221A6
:102A700002686420FEF76CFF8248006803F026FDC0
:102A800005460022BA4B03F02DFB074603F068F819
:102A90008346584603F06AFEC0B20390584603F0DE
:102AA00065FE05460020182101232A46CDE90010C5
:102AB000A0216420FEF74CFF039803F08FFE05462B
:102AC000594603F06BFF8346AA49584603F09AFE25
:102AD0008346584603F04AFE05468020182103230A
:102AE0002A46CDE90010A0217C20FEF731FFBDE889
:102AF000FF9FFEB50020029000260027FFF7C0FBD5
:102B000000240AE09C4A02EB440251789A4A12F8E7
:102B1000140000F096FA601CC4B2232CF2D30020FB
:102B2000FFF7AEFB00241F206A4908804FF6FF70B4
:102B30004FF496731A46AA2100901E20FEF7B9FCA6
:102B40008EA010210B46C822CDE90010B4211E2012
:102B5000FEF76EFF8FA010210B46C822CDE90010B2
:102B6000D2211E20FEF764FF8CA010210B46C82244
:102B7000CDE90010F0211E20FEF75AFF8AA0102197
:102B80000B46C822CDE90010F021A020FEF750FF2F
:102B90004FF478404F4908804AE00020FFF72AF9B7
:102BA0000546032D00D144E0B02000F067FA064648
:102BB000B12000F063FA8DF80800B22000F05EFA50
:102BC0008DF809009DF808009DF8091001F00F012B
:102BD00040EA01270020182103233246CDE90010E6
:102BE0004FF487713220FEF7B3FE00201821032333
:102BF0003A46CDE900104FF487719820FEF7A8FE01
:102C000031466BA002F0B6FA39466FA002F0B2FA74
:102C1000642000F0D2FA601CC4B2052C08D16E48C2
:102C2000006808B9012000E000206B49086000241A
:102C3000B3E700BFFEBD0025FFF76DFB21E00020DC
:102C4000FFF7D8F8044664B1012C04D0022C05D15A
:102C5000FFF784FB02E0FFF74CFF00BF00BFFFF768
:102C60005AFB322000F0A9FA681CC5B2052D08D124
:102C70005948006808B9012000E000205649086062
:102C80000025DCE78C0A0020880A00202A2A2A2A4C
:102C90002A2A466F72776172642A2A2A2A2A2A2AE5
:102CA000000000002A2A2A2A2A2A4261636B7761DF
:102CB00072642A2A2A2A2A2A000000002A2A2A2A9A
:102CC0002A2A436C6F636B776973652A2A2A2A2A3A
:102CD00000000000800A00202020547269616E67A5
:102CE000756C61725F576176653A00002A2A2A2A5C
:102CF000416E7469436C6F636B776973652A2A2A26
:102D00002A00000020202020205371756172655F29
:102D1000576176653A202020000000002A2A2A2ADE
:102D20002A2A2A2A576176652A2A2A2A2A2A2A2A18
:102D300000000000463A0000485A0000413A0000F6
:102D4000560000002E000000555020203A462B204F
:102D500020446F776E20203A462D00004C65667443
:102D60003A412B202052696E6768743A412D000069
:102D700000000A4000007A448A5101084B45595F1F
:102D800055503A20457869742074686520746573DD
:102D90007400000050732074657374004272696798
:102DA00068746E657373000053697A6500000000F3
:102DB0006F626A5F6272696768746E6573733A20E6
:102DC00025640D0A000000006F626A5F73697A650E
:102DD0003A2025640D0A0000A001214208B5012116
:102DE000102000F0F3FD4FF4C050ADF800001020AB
:102DF0008DF8030003208DF802006946CD4800F0ED
:102E000029FB4FF4C051CB4800F0D1FB08BD10B5F1
:102E1000C848406820F47040C64948600846406889
:102E200040F4405048600120C3490860C349C1F8DC
:102E3000B001042000F09DF90020BF490860042083
:102E400000F097F90020BD49C1F8B00110BD10B5E0
:102E5000B848406820F47040B64948600846406869
:102E600040F4405048600020B349091D0860B34950
:102E7000C1F8AC01042000F07CF90120AE49091D25
:102E80000860AE49C1F8AC01042000F072F910BD31
:102E900010B50024A748406820F47040A549486058
:102EA0000846406840F4004048600120A24908609C
:102EB000032000F05EF90120A049C1F8B001032011
:102EC00000F057F907E0601CC4B2FA2C03DDFFF7ED
:102ED000BEFF012010BD9848803800680028F2D15C
:102EE0009549091D086000BFF4E710B5002092491C
:102EF000091D08608F48406820F470408D49486083
:102F00000846406840F44050486000208B49C1F8B2
:102F1000AC01032000F02DF901208749091D08604C
:102F2000032000F026F900208449C1F8B00110BD4B
:102F300010B500208049091D08607E48406820F4D3
:102F400070407C4948600846406840F44050486002
:102F500001207A49C1F8AC01022000F00AF90120F1
:102F60007549091D0860022000F003F9002073492B
:102F7000C1F8B00110BD70B504466E48406820F439
:102F800070406C4948600846406840F440504860D2
:102F900000206949091D086000251DE0E00918B1FD
:102FA00001206549086002E000206349086060066E
:102FB000040E052000F0DDF801205F49091D0860BE
:102FC000052000F0D6F800205C49C1F8B0010520CA
:102FD00000F0CFF8681CC5B2082DDFDB70BD70B5FE
:102FE000054600245348406820F470405149486029
:102FF0000846406840F400404860002617E0002082
:103000004D49091D0860042000F0B3F801204B4928
:10301000C1F8B0016006040E47488038006808B166
:10302000601CC4B2042000F0A4F8701CC6B2082EC4
:10303000E5DB15B9FFF77CFF01E0FFF756FF2046FF
:1030400070BD70B505460C46FFF7E1FEE620FFF7C0
:1030500092FFFFF71DFF18B1FFF7F9FE012070BDC9
:103060002846FFF788FFFFF713FF2046FFF783FF8F
:10307000FFF70EFFFFF7EBFE0020F0E770B5044608
:10308000FFF7C5FEE620FFF776FFFFF701FF18B157
:10309000FFF7DDFE002070BD2046FFF76CFFFFF755
:1030A000F7FEFFF7B4FEE720FFF765FFFFF7F0FE3E
:1030B0000020FFF794FF0546FFF7C9FE2846EAE720
:1030C00070B506460C461546FFF7A1FEE620FFF751
:1030D00052FFFFF7DDFE18B1FFF7B9FE012070BD0A
:1030E0003046FFF748FFFFF7D3FEFFF790FEE720DB
:1030F000FFF741FFFFF7CCFE0DE0012C04D10020CB
:10310000FFF76DFF287003E00120FFF768FF2870CC
:103110006D1C601E84B2002CEFD1FFF798FE0020DA
:10312000DDE710B5FFF773FEE620FFF724FFFFF79A
:103130008EFE10BD00100140AC0122420000224270
:1031400010B56FF0040000F0F8FE2E4800682E491C
:10315000B0FBF1F02D4908700846007800EB400103
:10316000C1EBC0104FF6FF7101EAC000284908808A
:1031700010BD0146254A12784A434FF0E0235A61B8
:1031800000229A611A46126942F001021A6100BFD8
:103190004FF0E022106900F001021AB100F4803211
:1031A000002AF5D04FF0E022126922F001024FF020
:1031B000E0231A6100229A6170470146144A12887E
:1031C0004A434FF0E0235A6100229A611A4612697D
:1031D00042F001021A6100BF4FF0E022106900F0D6
:1031E00001021AB100F48032002AF5D04FF0E0223B
:1031F000126922F001024FF0E0231A6100229A6165
:10320000704700000400002000127A00900A00209D
:10321000920A002000BF704700BF4A4A128802F09D
:103220004002002AF9D0C2B2464B1B1D1A807047DB
:1032300010B586B00446012144F2040000F0C6FB3C
:103240004FF40070ADF8140003208DF8160018201C
:103250008DF8170005A93C4800F0FCF84FF4806099
:10326000ADF8140004208DF8170005A9364800F0C9
:10327000F1F825208DF8000003208DF801008DF86D
:10328000020001208DF80300684600F00CFE019456
:103290000020ADF80800ADF80A00ADF80C00ADF85C
:1032A00010000C20ADF80E0001A9264800F035FCF6
:1032B000012240F22551234800F0C7FC012121489A
:1032C00000F0B7FC06B010BD10B540F225511D4806
:1032D00000F0A0FD10B31B4800F01CFDC4B21B4859
:1032E000008800F40040C8B91848008800F4804005
:1032F00060B10A2C03D000201449088020E0134854
:10330000008840F400401149088019E00D2C06D1D6
:103310000E48008840F480400C49088010E00B48BB
:103320000088C0F30D000A490C5408480088401C6E
:103330000649088008460088C72801DD002008806B
:1033400010BD00000038014000080140980A00202C
:10335000BE1000200948804709480047FEE7FEE705
:10336000FEE7FEE7FEE7FEE7FEE7FEE7FEE7FEE735
:1033700004480549054A064B704700004704000809
:1033800031010008E8110020E8170020E8130020B0
:10339000E813002010B50446CC48844208D101212E
:1033A000042000F02DFB0021042000F029FB46E062
:1033B000C748844208D10121082000F021FB0021E8
:1033C000082000F01DFB3AE0C248844208D10121E8
:1033D000102000F015FB0021102000F011FB2EE062
:1033E000BD48844208D10121202000F009FB0021C2
:1033F000202000F005FB22E0B848844208D10121DA
:10340000402000F0FDFA0021402000F0F9FA16E01B
:10341000B348844208D10121802000F0F1FA002154
:10342000802000F0EDFA0AE0AE48844207D1012185
:10343000801500F0E5FA0021A01500F0E1FA10BDBA
:1034400010B50121084600F0DBFA0021012000F050
:10345000D7FA10BD2DE9F0410246002500260020D4
:1034600000230024002791F803C00CF00F0591F809
:1034700003C00CF0100CBCF1000F03D091F802C097
:103480004CEA050591F800C0BCF1000F31D014687A
:1034900000202BE04FF0010C0CFA00F3B1F800C053
:1034A0000CEA03069E4220D183004FF00F0C0CFA69
:1034B00003F7BC4305FA03FC4CEA040491F803C08B
:1034C000BCF1280F06D14FF0010C0CFA00FCC2F839
:1034D00014C00AE091F803C0BCF1480F05D14FF0C9
:1034E000010C0CFA00FCC2F810C0401C0828D1D313
:1034F0001460B1F800C0BCF1FF0F34DD5468002047
:103500002EE000F1080C4FF0010808FA0CF3B1F8B6
:1035100000C00CEA03069E4221D183004FF00F0C3D
:103520000CFA03F7BC4305FA03FC4CEA040491F8D7
:1035300003C0BCF1280F05D100F1080C08FA0CF803
:10354000C2F8148091F803C0BCF1480F07D100F114
:10355000080C4FF0010808FA0CF8C2F81080401C63
:103560000828CED35460BDE8F0814FF6FF7101808A
:10357000022181700421C1707047024600209368C7
:103580000B400BB1012000E0002070470146886825
:1035900080B2704702460020D3680B400BB1012077
:1035A00000E0002070470146C86880B270470161A2
:1035B0007047416170470AB1016100E041617047A5
:1035C000C16070474FF480320A4382618161826139
:1035D00082698269704702460020434B18684FF6A3
:1035E0008073184040EA021008433F4B1860704750
:1035F0003E49C8617047F0B50A4600230024002107
:10360000002500F00046B6F1004F02D1364EF169B8
:1036100001E0354E7168C0F3034583B200F44016F3
:10362000B6F5401F08D121F070612F4E766826F064
:1036300070662D4F7E6012E000F48016B6F5801F94
:1036400006D1032606FA05F4A14341F0706106E0B5
:10365000460D360103FA06F6B14341F0706122B11E
:10366000460D360103FA06F6314300F00046B6F186
:10367000004F02D11C4EF16101E01B4E7160F0BDA4
:1036800030B500228B071C0F0F2303FA04F2164BF0
:1036900008338C1053F824309343134C08348D10A6
:1036A00044F8253023468C1053F824308C07240F1F
:1036B00000FA04F423430C4C08348D1044F82530F0
:1036C00030BD0A49DC310860704700000008014045
:1036D000000C01400010014000140140001801409E
:1036E000001C014000200140000001400000204279
:1036F000DF48006840F00100DD4908600846406886
:10370000DC490840DA49486008460068DA49084060
:10371000D74908600846006820F480200860084601
:10372000406820F4FE0048604FF41F008860704736
:10373000CF49096821F48031CD4A116011460968EA
:1037400021F480211160B0F5803F03D0B0F5802FC7
:103750000ED106E0C649096841F48031C44A1160BF
:1037600007E0C349096841F4A021C14A116000E0A3
:1037700000BF00BF704710B50146002200230020A3
:103780004A11012A02D1BA4C236806E0022A02D16A
:10379000B74C236A01E0B64C636A01F01F020124B2
:1037A00094401C400CB1012000E0002010BD38B551
:1037B000002000900024002500BF3120FFF7DBFF30
:1037C00005460098401C00900098B0F5A06F01D00D
:1037D000002DF2D03120FFF7CEFF08B1012400E028
:1037E0000024204638BD01460020A14A106820F080
:1037F000F80040EAC10010607047A04908607047B7
:10380000024600209A4B586820F47C1042EA0103DB
:103810001843974B586070479849086670470146AF
:103820000020934A506820F003000843506070471E
:103830008F48406800F00C007047014600208C4A19
:10384000506820F0F00008435060704701460020A7
:10385000874A506820F4E060084350607047014692
:103860000020834A506820F4605040EAC100506054
:10387000704729B17E4A527A02437D4B5A7204E066
:103880007B4A527A82437A4B5A7270477B49D831CD
:103890000860704701460020754A506820F4404097
:1038A0000843506070470021714A20321170704AFD
:1038B00082F82010012802D004280AD104E0012156
:1038C0006B4A2032117005E00521694A20321170DF
:1038D00000E000BF00BF7047694908607047644955
:1038E000096A0143624A11627047654944390860B8
:1038F000704730B500210022002400235C4D6D6824
:1039000005F00C0121B1042905D0082923D105E0D7
:103910005C4D056022E05B4D05601FE0544D6D6815
:1039200005F47012524D6D6805F48034022505EBE4
:1039300092421CB9544D554305600BE04C4D6D68E7
:1039400005F400351DB1504D5543056002E04D4D65
:103950005543056002E04B4D056000BF00BF444D7C
:103960006D6805F0F0010909484D6B5C0568DD40A4
:1039700045603F4D6D6805F4E061090A434D6B5C9D
:103980004568DD4085603A4D6D6805F46051C90AAF
:103990003E4D6B5C4568DD40C560354D6D6805F496
:1039A0004041890B3A4D6B5CC568B5FBF3F5056189
:1039B00030BD29B12E4A526902432D4B5A6104E0B1
:1039C0002B4A526982432A4B5A61704729B1284ACF
:1039D00092690243264B9A6104E0254A9269824328
:1039E000234B9A61704729B1214AD2690243204B87
:1039F000DA6104E01E4AD26982431D4BDA617047E6
:103A000029B11B4AD2680243194BDA6004E0184A14
:103A1000D2688243164BDA60704729B1144A1269A2
:103A20000243134B1A6104E0114A12698243104B9E
:103A30001A61704712494039086070470F49C864DD
:103A400070470B49C87170470948406A40F0807060
:103A500007494862704701460020054A92680A40BB
:103A60000AB1012000E000207047014988727047C8
:103A7000001002400000FFF8FFFFF6FE0000424287
:103A80008004424200127A0000093D009A0A002098
:103A9000AA0A002010B50446FB48844209D101213E
:103AA0008803FFF7ADFF00214FF48040FFF7A8FF28
:103AB00032E0F648844209D101214804FFF7ADFF06
:103AC00000214FF40030FFF7A8FF25E0F0488442C2
:103AD00009D101218804FFF7A0FF00214FF48020C5
:103AE000FFF79BFF18E0EB48844209D10121C8048D
:103AF000FFF793FF00214FF40020FFF78EFF0BE04C
:103B0000E548844208D101210805FFF786FF00211E
:103B10004FF48010FFF781FF10BD2DE9F04786B00C
:103B200005460E460024A24600BFA1460027B089E4
:103B300000B100BF2F462C8A4CF6FF700440F0887D
:103B400004432C82AC894EF6F3100440B0883189CE
:103B50000843718908430443AC81AC8A4FF6FF40A7
:103B60000440B0890443AC8201A8FFF7C2FEC648F6
:103B7000874202D1DDF810A001E0DDF80CA0A88991
:103B800000F4004040B10AEBCA0000EB0A103168B3
:103B90004900B0FBF1F807E00AEBCA0000EB0A109D
:103BA00031688900B0FBF1F86420B8FBF0F0040143
:103BB0002009642101FB1089A88900F4004040B16C
:103BC000322000EBC900B0FBF1F000F00700044325
:103BD00008E0322000EB09106421B0FBF1F000F0A6
:103BE0000F0004432C8106B0BDE8F0874FF4165156
:103BF000016000218180C18001810C21418100216F
:103C00008181704710B502460020108A4FF2FF03F1
:103C100018400B884C8823438C882343CC8823434B
:103C20001843108210BD0021018041808180C18035
:103C3000704721B1828942F40052828104E0828976
:103C40004DF6FF731A4082817047F0B50346002499
:103C500000260025002040F66A17B94200D100BFB7
:103C60001846C1F3421401F01F06012707FA06F5B2
:103C7000012C01D10C3004E0022C01D1103000E005
:103C800014301AB107682F43076002E00768AF439A
:103C90000760F0BD1AB1838A0B43838202E0838AF6
:103CA0008B4383827047028A4FF6F0731A40028278
:103CB000028A0A430282704782894FF2FF731A40D8
:103CC000828182890A438281704721B1828942F0D0
:103CD0000202828104E082894FF6FD731A408281DC
:103CE0007047028A4FF6DF731A400282028A0A4343
:103CF0000282704721B1028A42F48042028204E0CB
:103D0000028A4BF6FF731A4002827047C1F3080221
:103D10008280704701468888C0F308007047818917
:103D200041F0010181817047028BD2B20283028B84
:103D300042EA012202837047028B02F47F4202832F
:103D4000028B0A430283704721B1828A42F020022B
:103D5000828204E0828A4FF6DF731A4082827047C3
:103D600021B1828A42F01002828204E0828A4FF6F8
:103D7000EF731A408282704721B1828A42F00802B2
:103D8000828204E0828A4FF6F7731A40828270477B
:103D900021B1828942F40042828103E08289C2F328
:103DA0000E028281704721B1828A42F400628282CF
:103DB00004E0828A4FF2FF731A4082827047828A3F
:103DC0004FF6FB731A408282828A0A4382827047CE
:103DD00021B1828A42F00202828204E0828A4FF696
:103DE000FD731A408282704702460020B1F5007FC1
:103DF00000D100BF13880B400BB1012000E0002070
:103E0000704701F40072B2F5007F00D100BFCA43D1
:103E10000280704770B50246002400230025002070
:103E200040F66A16B14200D100BFC1F3421501F05D
:103E30001F03012606FA03F3012D02D196893340B0
:103E400006E0022D02D1168A334001E0968A334003
:103E50000C12012606FA04F41688344013B10CB192
:103E6000012000E0002070BD10B50022002340F6C4
:103E70006A14A14200D100BF0A1201249440A3B2E7
:103E8000DC43048010BD00000038014000440040C5
:103E900000480040004C00400050004031490143C0
:103EA000314A1160704770B5002100230F22C47899
:103EB00004B32D4C246804F4E064C4F5E064210AE2
:103EC000C1F10403CA40447804FA03F18478144031
:103ED00021430901254C0678A155047804F01F05FB
:103EE0000124AC4005786D11AD0005F1E025C5F861
:103EF000004109E0047804F01F050124AC401C4D8A
:103F00000678761145F8264070BD1A4A0A400243E9
:103F1000154B1B1F1A60704739B1134A121D1268E6
:103F20000243114B1B1D1A6006E00F4A121D126856
:103F300082430D4B1B1D1A607047042808D14FF0B7
:103F4000E021096941F004014FF0E022116107E02E
:103F50004FF0E021096921F004014FF0E0221161E6
:103F6000704700000000FA050CED00E000E400E0FE
:103F700080E100E080FFFF1F10B501214807FFF737
:103F80004CFD00214FF00050FFF747FD10BD30B54C
:103F9000002200235A4C226840F6FE748440A2435B
:103FA000D1E900452C438D682C43CD6844EA0503D4
:103FB00003FA00F42243524C226030BD002101601C
:103FC00041608160C160704739B14D4A1268012378
:103FD00083401A434A4B1A6006E0494A126801239B
:103FE00083409A43464B1A60704741B1444A126875
:103FF0004FF4805383401A43414B1A6007E0404A14
:1040000012684FF4805383409A433D4B1A607047C7
:1040100010B551B13A4A121D126804090123A34098
:104020001A43374B1B1D1A6009E0354A121D1268EE
:1040300004090123A3409A43314B1B1D1A6010BD94
:1040400040B12F49091D096841F003012C4A121D96
:10405000116007E02A49091D096821F00301284A77
:10406000121D1160704710B53AB1254B1B6801FA5B
:1040700000F42343224C236006E0214B1B6801FA25
:1040800000F4A3431E4C236010BD08B5002200922B
:104090001B4A009200F10802009B1A440092009A09
:1040A000116008BD08B500220092154A009200F187
:1040B0001402009B1A440092009A116008BD30B5AA
:1040C00000240023082802D142EA012401E042EA48
:1040D00001440B4B00F120052B441C6030BD08B59A
:1040E000014600200090064800902C2000EB910033
:1040F000009A104400900098006880B208BD00004B
:104100000074004001684FF6FE721140016000210A
:10411000016041608160C1608D49884208D18C494D
:104120000839496841F00F01894A083A51608AE02C
:1041300087491431884208D185490839496841F0D6
:10414000F001834A083A51607DE081492831884274
:1041500008D17F490839496841F470617C4A083ABE
:10416000516070E07A493C31884208D17849083979
:10417000496841F47041764A083A516063E07449F5
:104180005031884208D172490839496841F4702198
:104190006F4A083A516056E06D496431884208D14F
:1041A0006B490839496841F47001694A083A51601D
:1041B00049E067497831884208D16549083949683A
:1041C00041F07061624A083A51603CE061498842BE
:1041D00006D1011F096841F00F01021F116032E092
:1041E0005C491431884208D15A49091F096841F0D5
:1041F000F001584A121F116025E0564928318842C3
:1042000008D15449091F096841F47061514A121FCD
:10421000116018E04F493C31884208D14D49091FCF
:10422000096841F470414B4A121F11600BE0494983
:104230005031884207D14749091F096841F470216C
:10424000444A121F1160704710B50022026847F6F9
:10425000F0739A430C6A8B6823430C6923434C69BF
:1042600023438C692343CC6923434C6A23438C6AE0
:1042700023431A430260CB6843600B6883604B683A
:10428000C36010BD0021016041608160C1600161B7
:1042900041618161C161016241628162704721B106
:1042A000026842F00102026004E002684FF6FE7309
:1042B0001A40026070471AB103680B43036002E0C2
:1042C00003688B430360704741607047014648684C
:1042D00080B2704701460020002201F080531BB1DC
:1042E0001C4B083B1A6802E0194B083B1A6802EAAB
:1042F00001030BB1012000E00020704700F0805165
:1043000019B11449091F086002E0114908394860D1
:10431000704701460020002201F080531BB10D4B75
:10432000083B1A6802E00A4B083B1A6802EA0103DC
:104330000BB1012000E00020704700F0805119B15E
:104340000449091F086002E00149083948607047C4
:10435000080002400804024010B50446FE488442AA
:1043600008D10121C014FFF74BFB0021E014FFF737
:1043700047FBC4E0B4F1804F08D101210846FFF7A4
:104380004CFB00210120FFF748FBB8E0F3488442D2
:1043900008D101210220FFF740FB00210220FFF796
:1043A0003CFBACE0EE48844208D101210420FFF739
:1043B00034FB00210420FFF730FBA0E0E9488442F1
:1043C00008D101210820FFF728FB00210820FFF772
:1043D00024FB94E0E448844208D101211020FFF737
:1043E0001CFB00211020FFF718FB88E0DF48844207
:1043F00008D101212020FFF710FB00212020FFF72A
:104400000CFB7CE0DA48844208D101214014FFF71C
:10441000F7FA00216014FFF7F3FA70E0D548844200
:1044200009D10121C804FFF7EBFA00214FF4002065
:10443000FFF7E6FA63E0D048844209D1012108057C
:10444000FFF7DEFA00214FF48010FFF7D9FA56E0AB
:10445000CA48844209D101214805FFF7D1FA002159
:104460004FF40010FFF7CCFA49E0C548844208D168
:1044700001214020FFF7D1FA00214020FFF7CDFABB
:104480003DE0C048844208D101218020FFF7C5FAF1
:1044900000218020FFF7C1FA31E0BB48844208D1F7
:1044A00001218015FFF7B9FA0021A015FFF7B5FA31
:1044B00025E0B648844209D101210804FFF7A0FA9B
:1044C00000214FF48030FFF79BFA18E0B048844297
:1044D00009D101214804FFF793FA00214FF400307D
:1044E000FFF78EFA0BE0AB48844208D10121880423
:1044F000FFF786FA00214FF48020FFF781FA10BD04
:1045000000220288944B98420ED0994B98420BD0CF
:10451000B0F1804F08D0914B984205D0904B984213
:1045200002D0904B984204D14FF68F731A404B88BB
:104530001A438D4B984207D08C4B984204D04FF6CB
:10454000FF431A40CB881A4302808B8883850B88EF
:104550000385814B98420BD0854B984208D08B4BFA
:10456000984205D08A4B984202D08A4B984201D19A
:104570000B7A038601238382704770B500240022E2
:104580000023058C4FF6FE7635400584028C838827
:10459000048B4FF68F752C40B51E2C400D882C4394
:1045A000751E2A400D892A434D882A436A4DA84228
:1045B0000BD06F4DA84208D0744DA84205D0744D61
:1045C000A84202D0734DA84213D14FF6F7752A4086
:1045D0004D892A434FF6FB752A408D882A434FF6B2
:1045E000FF652B404FF6FF552B408D892B43CD891E
:1045F0002B4383800483CD888586028470BD70B58B
:10460000002400220023058C4FF6EF763540058408
:10461000028C8388048B48F6FF752C404FF6FF45CB
:104620002C400D884FF6FF7606EA05252C434FF601
:10463000DF752A400D8906EA05152A434D8806EAEA
:1046400005152A43444DA84202D0494DA8421DD128
:104650004FF67F752A404D894FF6FF7606EA05151D
:104660002A434FF6BF752A408D8806EA05152A436E
:104670004FF6FF352B404FF2FF752B408D8906EA30
:1046800085052B43CD8906EA85052B43838004836A
:10469000CD880587028470BD70B5002400220023F8
:1046A000058C4FF6FF6635400584028C8388848B29
:1046B0004FF68F752C404FF6FC752C400D882C431F
:1046C0004FF6FF552A400D894FF6FF7606EA05257D
:1046D0002A434D8806EA05252A431F4DA84202D0E9
:1046E000234DA8421DD14FF2FF752A404D894FF648
:1046F000FF7606EA05252A434FF6FF352A408D88C6
:1047000006EA05252A434EF6FF752B404DF6FF7548
:104710002B408D8906EA05152B43CD8906EA051540
:104720002B4383808483CD888587028470BD70B5D8
:10473000002200230024058C4EF6FF7635400584C8
:10474000038C8488828B48F6FF752A404FF6FF451C
:104750002A400D8820E00000002C014000040040A9
:1047600000080040000C0040001000400014004011
:1047700000340140004C0140005001400054014011
:1047800000180040001C0040002000400040014094
:1047900000440140004801404FF6FF7606EA052537
:1047A0002A434DF6FF752B400D8906EA05352B434C
:1047B0004D8806EA05352B43FA4DA84202D0FA4D42
:1047C000A84208D14BF6FF752C408D894FF6FF7635
:1047D00006EA85152C4384808283CD88A0F840505A
:1047E000038470BD828B4FF2FF331A408283828B29
:1047F0004FF6FF7303EA01231A4382837047F0B533
:104800000C461546002200210026078C4EF6FF7C40
:1048100007EA0C070784828B018C4FF6FF7707EAC3
:10482000043640F6FF473A404FF6FF7707EA052780
:104830003A434FF6FF7707EA03373A43D94FB84276
:104840000ED0D94FB8420BD0B0F1804F08D0D74F1F
:10485000B84205D0D64FB84202D0D64FB84206D1A2
:104860004DF6FF77394046F48057394305E047F667
:10487000FF57394044F48057394382830184F0BDA7
:10488000828B4FF6F3731A408283828B0A438283B2
:104890007047F0B50C461546002200210026078C13
:1048A0004FF6FF6C07EA0C070784828B018C4FF6EA
:1048B000FF7707EA04264FF60C773A404FF6FF776A
:1048C00007EA03172F433A43B64FB8420ED0B64F0C
:1048D000B8420BD0B0F1804F08D0B44FB84205D0E9
:1048E000B34FB84202D0B34FB84206D14FF6FF578C
:1048F000394046F48077394305E04FF2FF5739409D
:1049000044F48077394382830184F0BD028B4FF2F7
:10491000FF331A400283028B4FF6FF7303EA012331
:104920001A4302837047F0B50C4615460022002159
:104930000026078C4FF6EF7C07EA0C070784028BF2
:10494000018C4FF6FF7707EA041640F6FF473A401E
:104950004FF6FF7707EA03373A434FF6FF7707EA48
:1049600005273A438F4FB8420ED08F4FB8420BD035
:10497000B0F1804F08D08D4FB84205D08C4FB8426F
:1049800002D08C4FB84206D14FF6DF77394046F05F
:104990001007394305E04FF65F77394044F01007C0
:1049A000394302830184F0BD028B4FF6F3731A4042
:1049B0000283028B0A4302837047F0B50C4615460A
:1049C00000220021068C4FF6FE773E400684028BC3
:1049D000018C4FF60C7632407E1C06EA03162E43FD
:1049E0003243704EB0420ED06F4EB0420BD0B0F199
:1049F000804F08D06D4EB04205D06D4EB04202D00F
:104A00006C4EB04206D14FF6FD76314044F00106BF
:104A1000314305E04FF6F576314044F0010631436D
:104A200002830184F0BD70B505460C465D488542A1
:104A30000ED05D4885420BD0B5F1804F08D05B4861
:104A4000854205D05A48854202D05A48854200D155
:104A500000E000BF208850B92389A28861882846D9
:104A6000FFF7ABFFE1882846FFF79EFF25E020888F
:104A700004280AD12389A28861882846FFF753FFBA
:104A8000E1882846FFF742FF17E0208808280AD16E
:104A90002389A28861882846FFF7FBFEE188284623
:104AA000FFF7EEFE09E02389A28861882846FFF718
:104AB000A6FEE1882846FFF795FE70BD2DE9F0417E
:104AC00005460C4600260127608808B9022600E04A
:104AD0000026A088012801D1022700E001272088B4
:104AE000A0B92389A28861882846FFF766FFE1887C
:104AF0002846FFF759FF23893A4631462846FFF7F3
:104B000012FFE1882846FFF701FF13E02389A288FE
:104B100061882846FFF707FFE1882846FFF7F6FE81
:104B200023893A4631462846FFF747FFE188284661
:104B3000FFF73AFFBDE8F0810A884B881A438B885B
:104B40001A43CB881A430B891A434B891A438B8922
:104B50001A43A0F8442070474FF6FF71818000216E
:104B60000180C18041800172704700210180418035
:104B70008180C180018141818181C1817047002193
:104B800001804180012181800021C1800181704725
:104B90000021018041808180C1800181418181812A
:104BA00070470000002C0140003401400004004028
:104BB00000080040000C004021B1028842F00102D0
:104BC000028004E002884FF6FE731A4002807047AC
:104BD00031B1B0F8442042F40042A0F8442005E08E
:104BE000B0F84420C2F30E02A0F8442070471AB176
:104BF00083890B43838102E083898B4383817047E0
:104C00008182704741EA0203A0F8483070471AB128
:104C100083890B43838102E083898B4383817047BF
:104C200001894FF6F8721140018170470A46002150
:104C300001894FF68F73194011430181704730B5D8
:104C400004460D4629462046FFF7F0FF208940F034
:104C50000700208130BD2DE9F04104460D4616467F
:104C60001F46602D06D13B46012231462046FFF704
:104C70005AFE05E03B46012231462046FFF79DFEE5
:104C800029462046FFF7D2FF208940F00700208107
:104C9000BDE8F08130B50C4600210189C9B24FF65C
:104CA000FF7505EA0325154325432943018130BDDE
:104CB0002DE9F04105460E46174698460024434626
:104CC0003A4631462846FFF7E5FF2C894FF6F87043
:104CD000044044F007044FF68F70044044F0700421
:104CE0002C81BDE8F081F0B504460D4616461F46FE
:104CF0003B46324629462046FFF7CCFF208940F448
:104D000080402081F0BD0185828270470A460021E3
:104D100001884FF68F731940114301807047F0B539
:104D20000C4615461E460021002200230189028BF5
:104D3000038C4FF6F877394021434FF6FC473A4051
:104D400040F201173A434FF6DD773B404FF6FF77CD
:104D500007EA06172F433B43018102830384F0BD1A
:104D60000A460021018B4FF68F73194011430183CE
:104D700070470A460021018B48F6FF7319404FF631
:104D8000FF7303EA02231943018370470A46002197
:104D9000818B4FF68F7319401143818370470A4608
:104DA0000021818B48F6FF7319404FF6FF7303EA29
:104DB000022319438183704721B1028842F08002A7
:104DC000028004E002884FF67F731A400280704729
:104DD00021B1828842F00402828004E082884FF68A
:104DE000FB731A408280704721B1828842F008022A
:104DF000828004E082884FF6F7731A408280704701
:104E000021B1828842F00102828004E082884FF65C
:104E1000FE731A40828070470A460021018B4FF6CC
:104E2000F77319401143018370470A460021018B33
:104E30004FF2FF7319404FF6FF7303EA0223194341
:104E4000018370470A460021818B4FF6F7731940A2
:104E50001143818370470A460021818B4FF2FF7313
:104E600019404FF6FF7303EA022319438183704709
:104E70000A460021018B4FF6FB7319401143018351
:104E800070470A460021018B4FF6FF3319404FF659
:104E9000FF7303EA02231943018370470A46002186
:104EA000818B4FF6FB7319401143818370470A468B
:104EB0000021818B4FF6FF3319404FF6FF7303EA51
:104EC00002231943818370470A460021018B4FF664
:104ED0007F7319401143018370470A460021018BFB
:104EE000C1F30E014FF6FF7303EA02231943018356
:104EF00070470A460021818B4FF67F73194011439A
:104F0000818370470A460021818BC1F30E014FF661
:104F1000FF7303EA02231943818370470A46002185
:104F2000018C4FF6FD7319401143018470470A4606
:104F30000021018C4FF6F77319401143018470472B
:104F40000A460021018C4FF6DF7319404FF6FF73BC
:104F500003EA02131943018470470A460021018CB9
:104F60004FF67F7319404FF6FF7303EA021319439C
:104F7000018470470A460021018C4FF6FF53194007
:104F80004FF6FF7303EA02231943018470470A4670
:104F90000021018C4FF2FF7319404FF6FF7303EAB3
:104FA00002231943018470470A460021018C4DF603
:104FB000FF7319404FF6FF7303EA0233194301846C
:104FC000704730B5002301248C40A3B2048C9C436D
:104FD0000484048C02FA01F5ADB22C43048430BD84
:104FE00030B5002304248C40A3B2048C9C43048479
:104FF000048C02FA01F5ADB22C43048430BD70B5C7
:105000000346002000241846183001258D40ACB21C
:105010001D8CA5431D8409B1082909D100EB61004D
:10502000056825F0700505600568154305600EE00C
:105030000D1FC5F34E052844056825F4E0450560BD
:1050400005684FF6FF7606EA02263543056070BD17
:1050500021B1028842F00202028004E002884FF689
:10506000FD731A400280704721B1028842F00402A9
:10507000028004E002884FF6FB731A4002807047FA
:1050800021B1828842F08002828004E082884FF65B
:105090007F731A408280704702884FF6F7731A4078
:1050A000028002880A430280704782884FF68F731D
:1050B0001A40828082880A438280704702894FF6B4
:1050C000F8731A40028102890A43028170470289FB
:1050D0004FF67F731A40028102890A4302817047AA
:1050E000818470478185704781867047018770474A
:1050F00081877047A0F84010704702884FF6FF4341
:105100001A40028002880A43028070470146888E56
:1051100070470146088F70470146888F70470146E7
:10512000B1F8400070470146888C70470146088DF1
:10513000704702460020138A0B400BB1012000E0AB
:1051400000207047CA430282704730B502460020F3
:1051500000230024158A05EA0103958905EA010464
:1051600013B10CB1012000E0002030BDCA4302821F
:10517000704770470FB4044910B503AA029800F0B5
:1051800009F910BC5DF814FB940A00202DE9F041E8
:105190000E460446002020622046E168884730B36E
:1051A000252805D0D4E901219047206A401CF2E768
:1051B000E168204600278847050018D0A5F1410086
:1051C000192802D820354FF4006732462946204678
:1051D0002760FBF707F840B1012804D0F61D26F040
:1051E00007060836D8E7361DD6E72846DAE7206AEC
:1051F000BDE8F0812DE9F0410646002410687529CC
:10520000314616A510D0AFF30080002802DA4042E4
:1052100013A507E031688A0701D512A502E0490706
:1052200004D511A5012401E0AFF3008000210A227A
:1052300006F1240709E0B0FBF2FCB0FBF2F302FB3D
:105240001C00303078541846491C0028F3D12346FE
:105250002A463046BDE8F04100F043B800000000A7
:105260002D0000002B0000002000000070B5044657
:105270000D4621461068AFF300802188090502D54C
:105280000F4A7A4402E00E4A7A440E32002104F1B9
:10529000240305E000F00F060009965D5E54491CEA
:1052A0000028F7D120780023000704D5702D02D004
:1052B00009B1022311322046BDE8704000F011B858
:1052C00086FF0000704770477047704710B500F0C8
:1052D00073F8006810BD10B5044600F06DF8046066
:1052E00010BD2DE9F0470D4699469246044600F15F
:1052F00024080168880604D5E06921F010012160C6
:1053000000E00120A84201DD471B00E00027A16961
:105310007A1902EB0900081AA0612078C00602D4AD
:105320002046AFF30080002608E0D4E901211AF8F6
:1053300006009047206A401C761C20624E45F4DB34
:105340002078C0060AD52046AFF3008006E0D4E9F5
:10535000012130209047206A401C2062381EA7F1AE
:105360000107F4DC07E0D4E9012118F805009047B3
:10537000206A401C2062281EA5F10105F3DC2046AE
:10538000AFF300802078000602D50220BDE8F08748
:105390000120FBE7074B70B50D467B4400F015F884
:1053A0000446284600F024F810B14FF0FF3070BDDD
:1053B000204670BD7BDEFFFF00487047881100204B
:1053C00001694A1C02610878704700B58FB0CDE9C9
:1053D00001310021059105497944CDE903101146B9
:1053E0006846FFF7D3FE0FB000BD0000E5FFFFFFEA
:1053F000007B00F080007047004870478811002053
:105400007546FFF7F9FFAE4605006946534620F0A2
:105410000700854618B020B5FDF7AAFFBDE820407B
:105420004FF000064FF000074FF000084FF0000B60
:1054300021F00701AC46ACE8C009ACE8C009ACE813
:10544000C009ACE8C0098D4670470446AFF3008040
:105450002046FAF7DCFE490050EAC12018BF0420BC
:105460004A0D18BF40F0010040F2FF72B2EB515FED
:1054700008BF40F00200012808BF05207047000067
:105480002DE9F74F144694B00021C4E90211159993
:10549000079121F00045C9498D4206DC1599C4E900
:1054A000000117B00020BDE8F08FC549DFF814A354
:1054B000A9423CDD0799C44E0029C44FC44A15993E
:1054C000534619DD00F018FF554506D0C14AC24BBE
:1054D00000F012FFC4E900010AE04FF0D352BE4BC6
:1054E00000F00AFF32463B4600F006FFC4E9000127
:1054F00017B00120BDE8F08F00F064FB554506D0E1
:10550000B44AB54B00F05EFBC4E900010AE04FF07D
:10551000D352B14B00F056FB32463B4600F052FBF3
:10552000C4E9000117B04FF0FF30BDE8F08FAB4980
:10553000A942159978DB21F0004183468846A84AA4
:10554000A84B00F0CFFD0022A74B00F03BFB00F082
:1055500041FD099000F09BFD06460F469C4A5346CC
:1055600000F0C0FD43465A4600F0BAFE80468A4627
:10557000984A994B3046394600F0B4FD2A0D012572
:105580000B924246534600F0ABFE032DC4E90001E6
:1055900039D00B98C1F30A51401A05EB4511113966
:1055A000814230DA9148C346784400EB0510CDF8CB
:1055B0000CA00C90D0E900233046394600F092FD53
:1055C00002460B46049106905846039900F094FE5B
:1055D00080468A4602460B465846039900F08CFEE8
:1055E000049B069A00F088FE83460C980391394686
:1055F000D0E90223304600F075FD5A46039B00F0C7
:105600007BFE6D1CBDE707980028A2BF099817B064
:10561000BDE8F08F616881F000416160099817B0C2
:105620004042BDE8F08FFFE784461598C1F31301AF
:10563000C0F30A50A0F2F5304FEA601800F01F06E0
:10564000C6F12000139000200690079041F4801EC0
:1056500005206D4676B1664A08EB00017A4452F89F
:10566000213002EB8101B3404A68139922FA01F11B
:10567000194305E05F4908EB0002794451F8221014
:10568000A1FB0E27A1FB0C131A449A4234BF01233D
:10569000002303EB070A05EB8003D3E901B70F44AE
:1056A0008F4234BF0121002193448B4411B19345B3
:1056B00002D903E0934501D2012100E00021C3E9B2
:1056C00001B7514445F82010011EA0F10100C1DCD2
:1056D0000298059F00F10050800F12900298DDE9BA
:1056E0000356800000F0D3FC834628460D9100F05D
:1056F000E5FC6FF01D0201F002FACDE90E01304623
:1057000000F0DCFC6FF03D0201F0F9F980468A46BA
:10571000384600F0D3FC6FF05D0201F0F0F9074667
:1057200042465346119100F04DFADDE90E2300F098
:1057300049FA5A460D9B00F045FA00250E465A4696
:1057400028460D9B00F0D8FDDDE90E2300F0D4FDC6
:105750004246534600F0D0FD3A46119B00F0C0FD92
:10576000DFF898A0244A534600F0BCFC0746884660
:10577000234A244B3146284600F0B4FC3A464346BF
:1057800000F020FA074688464FF0A84253463146BB
:10579000284600F0A7FC3A46434600F013FA159A53
:1057A00012F0004F04D0129A81F00041524212923E
:1057B000C4E90001129817B0BDE8F08FFB21E93F62
:1057C0007CD90240FB21F93F7370032E8A19A33B59
:1057D000000040543163621A61B4D03DFB2139416D
:1057E00083C8C96D305FE43F0000E03FBCFC0000AF
:1057F00038FC00001AFC0000182D4454FB21F93D30
:105800003326A611460B113C2DE9FF4D21F000482F
:1058100007460C46B8F1795F08DA00F0DBFB002898
:1058200001BF0020324904B0BDE8F08D3A4623465E
:105830001046194600F056FC054602462D480E4615
:105840000B460621784400F05DF82A46334600F006
:1058500049FCDDE9022382468B463846214600F0AA
:1058600041FC04460F4652465B462846314600F04E
:1058700039FC22463B4600F03FFD07468A464FF082
:10588000FF322846314601F03AF91B4A90450ADAC0
:105890003A46534600F030FD04B00022BDE8F04D1A
:1058A000134B00F01DBD154A4245A8BFA8F50015D1
:1058B0004FF00004B8BF124D22462B4600F01CFDED
:1058C0000646884622462B460020094900F014FD72
:1058D00004460D463A4653463046414600F00CFD1C
:1058E00004B022462B46BDE8F04D00F0F9BC0000A4
:1058F0000000F03FF0F900003333D33F0000E93FF0
:105900000000D23F2DE9F0414F1E00EBC7010446D5
:10591000D1E9000115461E4637F006020DD02A4691
:10592000334600F0DFFB7F1E04EBC703D3E90023FF
:1059300000F048F937F00602F1D1022F25D0042FEC
:1059400013D0062F18BFBDE8F0812A46334600F079
:10595000C9FBD4E90A2300F035F92A46334600F0A2
:10596000C1FBD4E9082300F02DF92A46334600F0A4
:10597000B9FBD4E9062300F025F92A46334600F0A6
:10598000B1FBD4E9042300F01DF92A46334600F0A8
:10599000A9FBD4E9022300F015F92A46334600F0AA
:1059A000A1FBD4E90023BDE8F04100F00BB90000F1
:1059B0002DE9FF4D054621F0004084B00C46B0F1C2
:1059C000795F0BDA2846FFF746FD042808BF00F090
:1059D0006FF8284608B02146BDE8F08D2A460B46F0
:1059E000104600F07FFB06460F462A46234600F08D
:1059F00079FB804626488A4632463B460521784454
:105A0000FFF780FF83461098029160B3214A224B32
:105A10004046514600F066FBCDE900015A4640463B
:105A20005146029B00F05EFB82468846DDE9060196
:105A30004FF0FF3201F063F85246434600F05CFC41
:105A400032463B4600F04EFBDDE9062300F054FCF5
:105A5000DDE9002300F050FC08B02A462346BDE8EB
:105A6000F04D00F03DBC0B465A463046394600F03A
:105A700039FB084A084B00F0A5F84246534600F0AF
:105A800031FB08B02A462346BDE8F04D00F09AB835
:105A90002EF90000495555555555C5BF012201F055
:105AA0002EB8002213461046114600F03BB9000004
:105AB000024A0020110701F022B8000001FDFFFF9B
:105AC00000B5254B21F0004287B09A4203DC00224A
:105AD000134600922BE0214B9A4208D140B94FF077
